:0800000022C09CC0FDCFFCCF23
:10000800FBCFFACFF9CFF8CF60C0ADC0F5CFF4CFB2
:10001800F3CFF2CFF1CFF0CFEFCFEECFEDCF00009F
:10002800000000000001C0F9A4B0999282F8809005
:100038000800040026000A0064012E000000F8945D
:10004800EE27ECBBF1E0FBBFEBBFE5BF8DE0A2E024
:10005800BB27ED938A95E9F780E094E0A0E6ED935D
:100068000197E9F7E8E3F0E085919591009761F051
:10007800A591B59105901590BF01F00105900D92DD
:100088000197E1F7FB01F0CFEFE5EDBFE4E0EEBF4C
:10009800C0E6D1E076C0AA93F894E199FECFE98151
:1000A800FA81FFBBEEBBE881EDBBE29AE19A789456
:1000B80023960895BA93AA93E199FECFE881F9812E
:1000C800FFBBEEBBE09AEDB3C5C00A921A92FA9252
:1000D8006A937A938A939A93AA93BA93EA93FA9330
:1000E800EFB7EA935FD1F40131964F0196D0E13032
:1000F800A0E0FA0789F45BD1DED1EA1BFB0B11F40F
:10010800B9980AC0ED2DD301F0E0AE17BF0708F08B
:10011800C19AF30131963F01E991EFBFF991E99155
:10012800B991A9919991899179916991F9901990C9
:1001380009901895EA93EFB7EA93C198882499240F
:1001480066247724C59B05C0E9B7EB7FE9BFC19852
:1001580006C0C59904C0E9B7E460E9BF23D1E991B5
:10016800EFBFE9911895EA93FA93EFB7EA93E8ECB1
:10017800E2BFF20131962F01E991EFBFF991E991C0
:1001880018953ED029D020D0C198789415D1A2EDE9
:10019800B0E090DFF0E013D10FD1A8ECB0E08ADF37
:1001A800F0E012D109D12197E0E0E883E883A88143
:1001B800A43130F4CAD09BD0E881EF5FE883F7CF51
:1001C8004BD02196F0CFFFCFEBB7E064EBBFE3E075
:1001D800E5BFE0E4EABF0895E2E0E3BFE8ECE2BF90
:1001E800E0E0EFBDE1E0EEBDEEEFEDBDE0E2ECBD3D
:1001F800E0E0E7BDE6BDEBBDEABDE9BDE8BD0895B9
:10020800E3E2E7BBE8E2E8BBE7E0E4BBE8E3E5BB41
:10021800E0E0E1BBEFEFE2BB0895EFE2F0E08E161D
:100228009F0618F0E1E0F0E00895E0E0F0E00895BE
:100238000895BA93AA93E8ECE2BFE9B7E160E9BF91
:1002480044245524E881F9814E165F06D8F3E9B7AE
:10025800EE7FE9BF22960895E1E0EA15F1F49D9951
:100268000DC0B7D02FD120F4B9D03197BCD005C07C
:10027800E0E0E0936201E0936301B8D09C990DC07F
:10028800A8D0A336E0E0BE0720F4A8D03196ABD0C2
:1002980003C0E3E6F0E098D0A9D0AA20F1F49D9934
:1002A8000DC0AED00FD120F4B0D031979CD005C08E
:1002B800E0E0E0936001E0936101ACD09C990DC04F
:1002C8009FD0A336E0E0BE0720F49FD031968BD0B4
:1002D80003C0E3E6F0E073D09DD0AA2011F4D090DB
:1002E8006001E1E0EA1511F4D09062010895EED0C2
:1002F8005ED09AD0BAD0EC59FE4F308158D094D005
:10030800AFD0EC59FE4F2081032F10E0183050F485
:1003180007FD02C0A89801C0A89AAA98AA9A000F37
:100328001F5FF4CF022F10E0183050F407FD02C011
:10033800A89801C0A89AAA98AA9A000F1F5FF4CF9C
:10034800A998A99AC8D024960895B39902C0849907
:1003580001C001C0AA24B39902C0849B01C002C095
:10036800E1E0AE2EB39B09C0BB24A9E1B0E061DF98
:10037800B39902C0E1E0BE2E0CC09B990AC0EB2DD8
:10038800F0E03196A1E0B0E07ED0BE2EA4ECB9E05A
:1003980050DFE1E0EB1519F4C598B99A02C0C59A87
:1003A800B9980895EDEFEDBDE7EFECBD0895ED2D9B
:1003B800F0E0A3E6B0E00895A2E3B0E03ACFE0931E
:1003C8006001F09361010895E0936201F093630185
:1003D8000895A0916201B09163010895A2E6B1E089
:1003E800ED91FD910895FE93EE930895A8EEB3E084
:1003F80020DFE8ECF0E0FA93EA93A09162014BCE9B
:10040800A0916001B09161010895A0E6B1E0ED917D
:10041800FD910895A8EEB3E00CDFE2EDF0E0FA9369
:10042800EA93A091600137CEAE1BBF0BEAE0F0E083
:100438000895F195E195F04008950024112490E184
:10044800AA0FBB1F001C111C0E1A1F0A18F40E0E4F
:100458001F1E01C0A1609A9599F7FD01D00108956A
:100468001CD0EBDF0EF4E5DF0895E894B7FF04C075
:10047800A095B09511966894F7FDDBDFDEDFFD01EE
:100488000EF4D7DF0895E894F7FF02C0D2DF68942E
:10049800EA23FB230EF4CDDF0895E894F7FF02C0AA
:1004A800C8DF6894B7FF06C0A095B095119600F80C
:1004B800039400FA08951B2EBF2FF12D1A2EAE2F8C
:1004C800E12D089500240A160B0608953A932A93FD
:1004D8001A930A9308953B812A8119810881089506
:00000001FF
